:060000000A128A110E280D
:10000800FE00030EFB000408FC000A08FD000A12AB
:100018008A11202A0A128A11112883133030FD0010
:100028000230FE004A30FF00203084000A128A1194
:100038003B220A128A11BB01BC01BD01BE01BF01EE
:10004800C001C101C201C301C40183010A128A119E
:10005800FD2883120313B601B11F332834283B2827
:10006800B009B109B00A0319B10AB601B60AB31F3B
:100078003E283F284828B209B309B20A0319B30A2F
:100088000130B4003408B606B701B80130083104AD
:1000980003194F2850288728B501B50A5E28013072
:1000A8000310B00DB10DFF3E031D54280130B400FC
:1000B8003408B507B11F612862285328013003109E
:1000C800B70DB80DFF3E031D632831083302031D29
:1000D8006F2830083202031C722873287A283008E7
:1000E800B2023108031CB303B30237140130031002
:1000F800B10CB00CFF3E031D7B280130B502031D77
:10010800862887286228360803198B288C28912886
:10011800B709B809B70A0319B80A3808B100370887
:10012800B0000800F601F11F9A289B28A228F009C0
:10013800F109F00A0319F10AF601F60AF31FA528D6
:10014800A628AF28F209F309F20A0319F30A0130C5
:10015800F4007408F606F701F80170087104031931
:10016800B628B728EE28F501F50AC528013003108E
:10017800F00DF10DFF3E031DBB280130F40074089B
:10018800F507F11FC828C928BA2801300310F70D50
:10019800F80DFF3E031DCA2871087302031DD628F7
:1001A80070087202031CD928DA28E1287008F202C4
:1001B8007108031CF303F302771401300310F10CE8
:1001C800F00CFF3E031DE2280130F502031DED2867
:1001D800EE28C92876080319F228F328F828F70921
:1001E800F809F70A0319F80A7808F1007708F00007
:1001F80008000A128A1108220A128A110A128A11A0
:10020800A4210A128A118312031306180C290D2936
:100218001C29061C102911290D290130B90039089B
:1002280085070508B900BA013908BB003A08BC00BF
:1002380086181F2920292D29861C232924292029AD
:10024800013085020508B900BA013908BB003A082F
:10025800BC000A128A11D0210A128A1183120313D0
:100268009F183729382946291F08C33920389F0085
:100278000F3083120313B900B90B402943298312A5
:1002880003139F143C08803AB9004408803A3902A5
:10029800031D502943083B020318532954295829A0
:1002A8008312031309150729831203130911072958
:1002B8000A128A110E28831203130C1F6429652958
:1002C80078291F0CF900790C0F39083A031D6D299C
:1002D8006E2977291E0888000808F900FA017908AC
:1002E800C3007A08C4000C130A128A11EC210A12FE
:1002F8008A1183120313890141084204031D8529C9
:1003080086299329891009143D08203E8400831307
:10031800000887000130C1000030C200A329410352
:100328004204031D98299929A329091089143F0813
:10033800203E8400831300088700C101C201080021
:100348008316031788018901831603138501073073
:100358008600870188018901811303309500831283
:100368000313850186018701831603130F088F394C
:1003780060388F000F148B1581120112811101153D
:1003880081140114ED308312031381000B118B16B5
:100398000B108B158B1708000F30831203134305BE
:1003A800BF0000304405C0001030B0000030B1007C
:1003B8004408B3004308B2000A128A112D200A1219
:1003C8008A11831203133108BE003008BD000800EB
:1003D8000F30831203134305BF0000304405C000EB
:1003E8001030F0000030F1004408F3004308F20038
:1003F8000A128A1196200A128A11710883120313AD
:10040800BE007008BD000800831603139F131F1257
:100418009F12831203131F083F3940389F001F089B
:10042800C33920389F001F140F3083120313B00004
:10043800B00B1C2A1F2A08000B1D232A242A2E2A47
:100448000A128A115F210A128A11ED3083120313EE
:1004580081000B117D088A007C0884007B0E8300D4
:10046800FE0E7E0E09007E088A007F0882000A12AE
:100478008A1137220A128A118000840A04087D062C
:1004880003190034FF0A0319FE0A3B2A3F340634D5
:100498005B344F3466346D347D3407347F346F34C5
:0C04A80077347C3439345E34793471349C
:04400E00F420FF3F5C
:00000001FF
