:060000000A128A110E280D
:10000800FE00030EF0000408F1000A08F2000A12CC
:100018008A11642A0A128A11112883133630FD00C6
:100028000230FE009830FF002C3084000A128A113A
:1000380089220A128A11A001A101A201A301A40127
:10004800A501A601A701A801A901AA01AB01F70111
:10005800F801F901FA0183010A128A1133280A12F8
:100068008A1136220A128A118312031306183D28B0
:100078003E285E28061C412842283E280130890275
:100088000908BB00BC013B08A2003C08A3000730DC
:1000980022062304031D51285228552804308900BC
:1000A8005E28033022062304031D5B285C285E2893
:1000B80002308900861861286228BC28861C6528B9
:1000C800662862280130BB003B0885070508BB008D
:1000D800BC013B08F9003C08FA0006120330790617
:1000E8007A04031D782879287C2804308500BC28E8
:1000F800053079067A04031D82288328862808306B
:100108008500BC28093079067A04031D8C288D28BF
:10011800902810308500BC28113079067A04031D18
:10012800962897289A2820308500BC2821307906FF
:100138007A04031DA028A128A42840308500BC28E3
:10014800413079067A04031DAA28AB28AE288030EE
:100158008500BC28813079067A04031DB428B528A7
:10016800BC28850106160130A2000030A300BC2877
:100178000619BF28C0281A29061DC328C428C02864
:100188000130BB003B0888070808BB00BC013B08DE
:10019800F7003C08F8008612033077067804031D40
:1001A800D628D728DA28043088001A290530770697
:1001B8007804031DE028E128E428083088001A297B
:1001C800093077067804031DEA28EB28EE2810305A
:1001D80088001A29113077067804031DF428F528B9
:1001E800F828203088001A29213077067804031D62
:1001F800FE28FF280229403088001A294130770656
:100208007804031D082909290C29803088001A2937
:10021800813077067804031D122913291A298801C9
:1002280086160230A2000030A3001A290A128A1189
:10023800E7210A128A1138280A128A110E28831215
:100248000313B801F41F29292A293129F309F409CC
:10025800F30A0319F40AB801B80AF61F3429352934
:100268003E29F509F609F50A0319F60A0130B60020
:100278003608B806B901BA01730874040319452988
:1002880046297D29B701B70A542901300310F30D17
:10029800F40DFF3E031D4A290130B6003608B707A2
:1002A800F41F57295829492901300310B90DBA0DEF
:1002B800FF3E031D592974087602031D652973083A
:1002C8007502031C6829692970297308F5027408E6
:1002D800031CF603F602391401300310F40CF30C76
:1002E800FF3E031D71290130B702031D7C297D29BA
:1002F800582938080319812982298729B909BA098F
:10030800B90A0319BA0A3A08F4003908F3000800D0
:1003180083120313B801F61F922993299A29F50924
:10032800F609F50A0319F60AB801B80AF41F9D2957
:100338009E29A329F309F409F30A0319F40A730897
:1003480074040319A829A929D829B701B70AB72914
:1003580001300310F30DF40DFF3E031DAD290130EC
:10036800B6003608B707F41FBA29BB29AC297408A8
:100378007602031DC12973087502031CC429C52907
:10038800CB297308F5027408031CF603F602013042
:100398000310F40CF30CFF3E031DCC290130B70207
:1003A800031DD729D829BB2938080319DC29DD29D9
:1003B800E229F509F609F50A0319F60A7608F400A0
:1003C8007508F30008006430F3000030F40083126D
:1003D80003132308F6002208F5000A128A118C215B
:1003E8000A128A11740883120313A1007308A0006B
:1003F8000A30F3000030F4002108F6002008F50068
:100408000A128A118C210A128A11740883120313A2
:10041800A9007308A8000A30F3000030F40021088E
:10042800F6002008F5000A128A1123210A128A11FF
:10043800740883120313A7007308A6006430F3003E
:100448000030F4002308F6002208F5000A128A1189
:1004580023210A128A11740883120313A500730852
:10046800A400080083160317880189018316031363
:1004780085010730860087018801890181130730CB
:10048800950083120313850186018701880189017C
:10049800831603130F088F3940388F000F148B15FC
:1004A800811201128111011581140114ED3083129A
:1004B800031381000B118B160B108B158B1708007B
:1004C8000B1D672A682A7C2A831203132A082B0427
:1004D800031D6F2A702A772A861528082C3E840067
:1004E800831300088700AA01AB01ED3081000B11CE
:1004F80072088A0071088400700E8300FE0E7E0E5A
:1005080009007E088A007F0882000A128A11852263
:100518000A128A118000840A04087D06031900342F
:10052800FF0A0319FE0A892A3F3406345B345B3418
:0C05380066346D347D344F347F346F34F2
:04400E00F420FF3F5C
:00000001FF
